{
    "_format": "hh-sol-artifact-1",
    "contractName": "TradeService",
    "sourceName": "contracts/v2/TradeService.sol",
    "abi": [
        {
            "inputs": [],
            "stateMutability": "nonpayable",
            "type": "constructor"
        },
        {
            "anonymous": false,
            "inputs": [
                {
                    "indexed": true,
                    "internalType": "address",
                    "name": "previousOwner",
                    "type": "address"
                },
                {
                    "indexed": true,
                    "internalType": "address",
                    "name": "newOwner",
                    "type": "address"
                }
            ],
            "name": "OwnershipTransferStarted",
            "type": "event"
        },
        {
            "anonymous": false,
            "inputs": [
                {
                    "indexed": true,
                    "internalType": "address",
                    "name": "previousOwner",
                    "type": "address"
                },
                {
                    "indexed": true,
                    "internalType": "address",
                    "name": "newOwner",
                    "type": "address"
                }
            ],
            "name": "OwnershipTransferred",
            "type": "event"
        },
        {
            "anonymous": false,
            "inputs": [
                {
                    "indexed": true,
                    "internalType": "address",
                    "name": "tokenA",
                    "type": "address"
                },
                {
                    "indexed": true,
                    "internalType": "address",
                    "name": "tokenB",
                    "type": "address"
                },
                {
                    "indexed": false,
                    "internalType": "address",
                    "name": "tradeAB",
                    "type": "address"
                },
                {
                    "indexed": false,
                    "internalType": "address",
                    "name": "tradeBA",
                    "type": "address"
                }
            ],
            "name": "PairCreated",
            "type": "event"
        },
        {
            "inputs": [],
            "name": "acceptOwnership",
            "outputs": [],
            "stateMutability": "nonpayable",
            "type": "function"
        },
        {
            "inputs": [
                {
                    "internalType": "address",
                    "name": "_feeTo",
                    "type": "address"
                }
            ],
            "name": "changeFeeTo",
            "outputs": [],
            "stateMutability": "nonpayable",
            "type": "function"
        },
        {
            "inputs": [
                {
                    "internalType": "address",
                    "name": "token0",
                    "type": "address"
                },
                {
                    "internalType": "address",
                    "name": "token1",
                    "type": "address"
                }
            ],
            "name": "computeTradeAddr",
            "outputs": [
                {
                    "internalType": "address",
                    "name": "",
                    "type": "address"
                }
            ],
            "stateMutability": "view",
            "type": "function"
        },
        {
            "inputs": [
                {
                    "internalType": "address",
                    "name": "tokenA",
                    "type": "address"
                },
                {
                    "internalType": "address",
                    "name": "tokenB",
                    "type": "address"
                }
            ],
            "name": "createPair",
            "outputs": [
                {
                    "internalType": "address",
                    "name": "tradeAB",
                    "type": "address"
                },
                {
                    "internalType": "address",
                    "name": "tradeBA",
                    "type": "address"
                }
            ],
            "stateMutability": "nonpayable",
            "type": "function"
        },
        {
            "inputs": [],
            "name": "fee",
            "outputs": [
                {
                    "internalType": "uint8",
                    "name": "",
                    "type": "uint8"
                }
            ],
            "stateMutability": "view",
            "type": "function"
        },
        {
            "inputs": [],
            "name": "feeTo",
            "outputs": [
                {
                    "internalType": "address",
                    "name": "",
                    "type": "address"
                }
            ],
            "stateMutability": "view",
            "type": "function"
        },
        {
            "inputs": [
                {
                    "internalType": "address",
                    "name": "tradeAddr",
                    "type": "address"
                },
                {
                    "internalType": "uint112",
                    "name": "token1In",
                    "type": "uint112"
                },
                {
                    "internalType": "uint112",
                    "name": "token0Out",
                    "type": "uint112"
                },
                {
                    "internalType": "uint48",
                    "name": "findFromId",
                    "type": "uint48"
                }
            ],
            "name": "findBeforeOrderId",
            "outputs": [
                {
                    "internalType": "uint48",
                    "name": "",
                    "type": "uint48"
                }
            ],
            "stateMutability": "view",
            "type": "function"
        },
        {
            "inputs": [
                {
                    "internalType": "address",
                    "name": "tradeAddr",
                    "type": "address"
                },
                {
                    "internalType": "uint48",
                    "name": "fromOrderId",
                    "type": "uint48"
                },
                {
                    "internalType": "uint8",
                    "name": "num",
                    "type": "uint8"
                }
            ],
            "name": "getOrderList",
            "outputs": [
                {
                    "components": [
                        {
                            "internalType": "uint48",
                            "name": "orderId",
                            "type": "uint48"
                        },
                        {
                            "internalType": "uint112",
                            "name": "amountIn",
                            "type": "uint112"
                        },
                        {
                            "internalType": "uint112",
                            "name": "amountOut",
                            "type": "uint112"
                        },
                        {
                            "internalType": "uint32",
                            "name": "progress",
                            "type": "uint32"
                        }
                    ],
                    "internalType": "struct TradeService.ListOrder[]",
                    "name": "",
                    "type": "tuple[]"
                }
            ],
            "stateMutability": "view",
            "type": "function"
        },
        {
            "inputs": [
                {
                    "internalType": "address",
                    "name": "token0",
                    "type": "address"
                },
                {
                    "internalType": "address",
                    "name": "token1",
                    "type": "address"
                }
            ],
            "name": "getTrade",
            "outputs": [
                {
                    "internalType": "address",
                    "name": "",
                    "type": "address"
                }
            ],
            "stateMutability": "view",
            "type": "function"
        },
        {
            "inputs": [
                {
                    "internalType": "address",
                    "name": "user",
                    "type": "address"
                },
                {
                    "internalType": "uint48",
                    "name": "lastIndex",
                    "type": "uint48"
                },
                {
                    "internalType": "uint48",
                    "name": "num",
                    "type": "uint48"
                }
            ],
            "name": "getUserOrders",
            "outputs": [
                {
                    "components": [
                        {
                            "internalType": "uint48",
                            "name": "index",
                            "type": "uint48"
                        },
                        {
                            "internalType": "address",
                            "name": "trade",
                            "type": "address"
                        },
                        {
                            "internalType": "address",
                            "name": "token0",
                            "type": "address"
                        },
                        {
                            "internalType": "address",
                            "name": "token1",
                            "type": "address"
                        },
                        {
                            "internalType": "uint48",
                            "name": "orderId",
                            "type": "uint48"
                        },
                        {
                            "internalType": "uint32",
                            "name": "createTime",
                            "type": "uint32"
                        },
                        {
                            "internalType": "uint112",
                            "name": "amountIn",
                            "type": "uint112"
                        },
                        {
                            "internalType": "uint112",
                            "name": "amountOut",
                            "type": "uint112"
                        },
                        {
                            "internalType": "uint32",
                            "name": "progress",
                            "type": "uint32"
                        },
                        {
                            "internalType": "bool",
                            "name": "isRemoved",
                            "type": "bool"
                        }
                    ],
                    "internalType": "struct TradeService.UserOrder[]",
                    "name": "",
                    "type": "tuple[]"
                }
            ],
            "stateMutability": "view",
            "type": "function"
        },
        {
            "inputs": [
                {
                    "internalType": "address",
                    "name": "tradeAddr",
                    "type": "address"
                },
                {
                    "internalType": "uint112",
                    "name": "token1In",
                    "type": "uint112"
                },
                {
                    "internalType": "uint112",
                    "name": "token0Out",
                    "type": "uint112"
                },
                {
                    "internalType": "uint48",
                    "name": "beforeOrderId",
                    "type": "uint48"
                }
            ],
            "name": "makeOrder",
            "outputs": [
                {
                    "internalType": "uint48",
                    "name": "newOrderId",
                    "type": "uint48"
                }
            ],
            "stateMutability": "nonpayable",
            "type": "function"
        },
        {
            "inputs": [],
            "name": "owner",
            "outputs": [
                {
                    "internalType": "address",
                    "name": "",
                    "type": "address"
                }
            ],
            "stateMutability": "view",
            "type": "function"
        },
        {
            "inputs": [],
            "name": "pendingOwner",
            "outputs": [
                {
                    "internalType": "address",
                    "name": "",
                    "type": "address"
                }
            ],
            "stateMutability": "view",
            "type": "function"
        },
        {
            "inputs": [
                {
                    "internalType": "address",
                    "name": "tokenA",
                    "type": "address"
                },
                {
                    "internalType": "address",
                    "name": "tokenB",
                    "type": "address"
                }
            ],
            "name": "refreshApprove",
            "outputs": [],
            "stateMutability": "nonpayable",
            "type": "function"
        },
        {
            "inputs": [],
            "name": "renounceOwnership",
            "outputs": [],
            "stateMutability": "nonpayable",
            "type": "function"
        },
        {
            "inputs": [
                {
                    "internalType": "address",
                    "name": "tradeAddr",
                    "type": "address"
                },
                {
                    "internalType": "uint112",
                    "name": "token0In",
                    "type": "uint112"
                },
                {
                    "internalType": "uint112",
                    "name": "token1Want",
                    "type": "uint112"
                }
            ],
            "name": "takeOrder",
            "outputs": [
                {
                    "internalType": "uint112",
                    "name": "token0Pay",
                    "type": "uint112"
                },
                {
                    "internalType": "uint112",
                    "name": "token1Gain",
                    "type": "uint112"
                },
                {
                    "internalType": "uint112",
                    "name": "token0Fee",
                    "type": "uint112"
                }
            ],
            "stateMutability": "nonpayable",
            "type": "function"
        },
        {
            "inputs": [
                {
                    "internalType": "address",
                    "name": "tradeAddr",
                    "type": "address"
                },
                {
                    "internalType": "uint112",
                    "name": "token0In",
                    "type": "uint112"
                },
                {
                    "internalType": "uint112",
                    "name": "token1Want",
                    "type": "uint112"
                }
            ],
            "name": "takeOrder2",
            "outputs": [
                {
                    "internalType": "uint112",
                    "name": "token0Pay",
                    "type": "uint112"
                },
                {
                    "internalType": "uint112",
                    "name": "token1Gain",
                    "type": "uint112"
                },
                {
                    "internalType": "uint112",
                    "name": "token0Fee",
                    "type": "uint112"
                }
            ],
            "stateMutability": "nonpayable",
            "type": "function"
        },
        {
            "inputs": [
                {
                    "internalType": "address",
                    "name": "newOwner",
                    "type": "address"
                }
            ],
            "name": "transferOwnership",
            "outputs": [],
            "stateMutability": "nonpayable",
            "type": "function"
        },
        {
            "inputs": [
                {
                    "internalType": "address",
                    "name": "",
                    "type": "address"
                }
            ],
            "name": "userOrdersLength",
            "outputs": [
                {
                    "internalType": "uint48",
                    "name": "",
                    "type": "uint48"
                }
            ],
            "stateMutability": "view",
            "type": "function"
        }
    ],
    "bytecode": "0x60806040523480156200001157600080fd5b506200001d3362000035565b600280546001600160a01b03191633179055620000a3565b600180546001600160a01b0319169055620000508162000053565b50565b600080546001600160a01b038381166001600160a01b0319831681178455604051919092169283917f8be0079c531659141344cd1fd0a4f28419497f9722a3daafe3b4186f6b6457e09190a35050565b614af880620000b36000396000f3fe60806040523480156200001157600080fd5b5060043610620001395760003560e01c8063b2ee08da11620000bb578063f06675a8116200007a578063f06675a81462000319578063f2616274146200033f578063f2fde38b1462000356578063f519e79f146200036d578063f8b4f89d146200039357600080fd5b8063b2ee08da1462000261578063c3fe2c34146200029c578063c9c6539614620002b3578063ddca3f4314620002eb578063e30c3978146200030757600080fd5b80635b567f2211620001085780635b567f2214620001ce578063715018a6146200021057806377309f4e146200021a57806379ba509714620002455780638da5cb5b146200024f57600080fd5b8063017e7e58146200013e57806321a0e632146200016f57806323b1cde4146200019e5780632f38842714620001b7575b600080fd5b60025462000152906001600160a01b031681565b6040516001600160a01b0390911681526020015b60405180910390f35b620001866200018036600462002306565b620003aa565b60405165ffffffffffff909116815260200162000166565b620001b5620001af3660046200236b565b6200055b565b005b620001b5620001c83660046200238b565b62000587565b620001e5620001df366004620023c9565b62000686565b604080516001600160701b039485168152928416602084015292169181019190915260600162000166565b620001b562000934565b620001866200022b3660046200236b565b60056020526000908152604090205465ffffffffffff1681565b620001b56200094c565b6000546001600160a01b031662000152565b62000152620002723660046200238b565b6001600160a01b039182166000908152600360209081526040808320938516835292905220541690565b620001e5620002ad366004620023c9565b620009ca565b620002ca620002c43660046200238b565b62000ddd565b604080516001600160a01b0393841681529290911660208301520162000166565b620002f4606481565b60405160ff909116815260200162000166565b6001546001600160a01b031662000152565b620003306200032a3660046200242b565b6200124e565b60405162000166919062002472565b62000152620003503660046200238b565b6200153c565b620001b5620003673660046200236b565b62001658565b620003846200037e366004620024f2565b620016cc565b60405162000166919062002539565b62000186620003a436600462002306565b620018f0565b6000808590506000816001600160a01b031663d21220a76040518163ffffffff1660e01b8152600401602060405180830381865afa158015620003f1573d6000803e3d6000fd5b505050506040513d601f19601f8201168201806040525081019062000417919062002621565b9050620004396001600160a01b03821633306001600160701b038a1662001b39565b60006200044988888888620018f0565b60405163d9d8f54160e01b81526001600160701b03808a1660048301528816602482015265ffffffffffff821660448201529091506001600160a01b0384169063d9d8f541906064016020604051808303816000875af1158015620004b2573d6000803e3d6000fd5b505050506040513d601f19601f82011682018060405250810190620004d891906200264e565b604051636a89ab7960e11b815265ffffffffffff821660048201523360248201529094506001600160a01b0384169063d51356f290604401600060405180830381600087803b1580156200052b57600080fd5b505af115801562000540573d6000803e3d6000fd5b5050505062000550888562001c73565b505050949350505050565b6200056562001d6c565b600280546001600160a01b0319166001600160a01b0392909216919091179055565b6001600160a01b03808316600090815260036020908152604080832085851684529091529020541680620005d85760405162461bcd60e51b8152600401620005cf906200266e565b60405180910390fd5b620005f06001600160a01b0384168260001962001dc8565b620006086001600160a01b0383168260001962001dc8565b6001600160a01b03808316600090815260036020908152604080832087851684529091529020541680620006505760405162461bcd60e51b8152600401620005cf906200266e565b620006686001600160a01b0385168260001962001dc8565b620006806001600160a01b0384168260001962001dc8565b50505050565b6000806000808690506000816001600160a01b0316630dfe16816040518163ffffffff1660e01b8152600401602060405180830381865afa158015620006d0573d6000803e3d6000fd5b505050506040513d601f19601f82011682018060405250810190620006f6919062002621565b90506000826001600160a01b031663d21220a76040518163ffffffff1660e01b8152600401602060405180830381865afa15801562000739573d6000803e3d6000fd5b505050506040513d601f19601f820116820180604052508101906200075f919062002621565b90506000612710846001600160a01b031663ddca3f436040518163ffffffff1660e01b8152600401602060405180830381865afa158015620007a5573d6000803e3d6000fd5b505050506040513d601f19601f82011682018060405250810190620007cb9190620026be565b620007da9060ff168b620026f4565b620007e6919062002722565b90506000620007f68a8362002757565b9050620008186001600160a01b03851633306001600160701b03851662001b39565b604051631a4bce9160e21b81526001600160701b03808c1660048301528a1660248201526001600160a01b0386169063692f3a44906044016060604051808303816000875af115801562000870573d6000803e3d6000fd5b505050506040513d601f19601f820116820180604052508101906200089691906200278e565b91995097509550620008bc6001600160a01b038416336001600160701b038a1662001eed565b876001600160701b03168a6001600160701b0316111562000926576000620008e5898c620027d7565b90506000620008f58885620027d7565b9050620009233362000908838562002757565b6001600160a01b03891691906001600160701b031662001eed565b50505b505050505093509350939050565b6200093e62001d6c565b6200094a60006200200b565b565b60015433906001600160a01b03168114620009bc5760405162461bcd60e51b815260206004820152602960248201527f4f776e61626c6532537465703a2063616c6c6572206973206e6f7420746865206044820152683732bb9037bbb732b960b91b6064820152608401620005cf565b620009c7816200200b565b50565b6000806000808690506000816001600160a01b0316630dfe16816040518163ffffffff1660e01b8152600401602060405180830381865afa15801562000a14573d6000803e3d6000fd5b505050506040513d601f19601f8201168201806040525081019062000a3a919062002621565b90506000826001600160a01b031663d21220a76040518163ffffffff1660e01b8152600401602060405180830381865afa15801562000a7d573d6000803e3d6000fd5b505050506040513d601f19601f8201168201806040525081019062000aa3919062002621565b90506000612710846001600160a01b031663ddca3f436040518163ffffffff1660e01b8152600401602060405180830381865afa15801562000ae9573d6000803e3d6000fd5b505050506040513d601f19601f8201168201806040525081019062000b0f9190620026be565b62000b1e9060ff168b620026f4565b62000b2a919062002722565b9050600062000b3a8a8362002757565b905062000b5c6001600160a01b03851633306001600160701b03851662001b39565b604051631a4bce9160e21b81526001600160701b03808c1660048301528a1660248201526001600160a01b0386169063692f3a44906044016060604051808303816000875af115801562000bb4573d6000803e3d6000fd5b505050506040513d601f19601f8201168201806040525081019062000bda91906200278e565b9199509750955062000c006001600160a01b038416336001600160701b038a1662001eed565b856001600160701b0316826001600160701b0316111562000c475762000c473362000c2c8885620027d7565b6001600160a01b03871691906001600160701b031662001eed565b876001600160701b03168a6001600160701b031611156200092657600062000c70898c620027d7565b905060008b62000c818c84620026f4565b62000c8d919062002722565b6001600160a01b0380871660009081526003602090815260408083208b851684529091528120549091169e508e985090915062000ccd88848484620018f0565b60405163d9d8f54160e01b81526001600160701b0380861660048301528416602482015265ffffffffffff821660448201529091506000906001600160a01b038a169063d9d8f541906064016020604051808303816000875af115801562000d39573d6000803e3d6000fd5b505050506040513d601f19601f8201168201806040525081019062000d5f91906200264e565b604051636a89ab7960e11b815265ffffffffffff821660048201523360248201529091506001600160a01b038a169063d51356f290604401600060405180830381600087803b15801562000db257600080fd5b505af115801562000dc7573d6000803e3d6000fd5b5050505050505050505050505093509350939050565b600080826001600160a01b0316846001600160a01b03160362000e695760405162461bcd60e51b815260206004820152603f60248201527f5472616465536572766963653a20637265617465506169723a3a20746f6b656e60448201527f4120616e6420746f6b656e422063616e6e6f74206265207468652073616d65006064820152608401620005cf565b6001600160a01b03841662000ed75760405162461bcd60e51b815260206004820152602d60248201527f5472616465536572766963653a20637265617465506169723a3a20746f6b656e60448201526c0412063616e6e6f74206265203609c1b6064820152608401620005cf565b6001600160a01b03831662000f455760405162461bcd60e51b815260206004820152602d60248201527f5472616465536572766963653a20637265617465506169723a3a20746f6b656e60448201526c0422063616e6e6f74206265203609c1b6064820152608401620005cf565b6001600160a01b0384811660009081526003602090815260408083208785168452909152902054161562000fd55760405162461bcd60e51b815260206004820152603060248201527f5472616465536572766963653a20637265617465506169723a3a20747261646560448201526f105088185b1c9958591e48195e1a5cdd60821b6064820152608401620005cf565b6001600160a01b03838116600090815260036020908152604080832088851684529091529020541615620010655760405162461bcd60e51b815260206004820152603060248201527f5472616465536572766963653a20637265617465506169723a3a20747261646560448201526f109048185b1c9958591e48195e1a5cdd60821b6064820152608401620005cf565b600084846040516020016200107c929190620027fa565b6040516020818303038152906040528051906020012090508085856064600260009054906101000a90046001600160a01b0316604051620010bd9062002263565b620010cc94939291906200281c565b8190604051809103906000f5905080158015620010ed573d6000803e3d6000fd5b506001600160a01b038681166000908152600360209081526040808320898516845282529182902080546001600160a01b03191693851693909317909255519194506200113f918691889101620027fa565b6040516020818303038152906040528051906020012090508084866064600260009054906101000a90046001600160a01b0316604051620011809062002263565b6200118f94939291906200281c565b8190604051809103906000f5905080158015620011b0573d6000803e3d6000fd5b506001600160a01b0385811660009081526003602090815260408083208a85168452909152902080546001600160a01b0319169183169190911790559150620011fa858562000587565b604080516001600160a01b038581168252848116602083015280871692908816917f528a7392e6fd550c4de9e894c55879cd7a03e87f1ac9ddafe8677a2ac1d8cf9f910160405180910390a3509250929050565b606060008260ff1667ffffffffffffffff8111156200127157620012716200284a565b604051908082528060200260200182016040528015620012c557816020015b604080516080810182526000808252602080830182905292820181905260608201528252600019909201910181620012905790505b5090508465ffffffffffff85166000036200134257806001600160a01b03166399a3bd236040518163ffffffff1660e01b8152600401602060405180830381865afa15801562001319573d6000803e3d6000fd5b505050506040513d601f19601f820116820180604052508101906200133f91906200264e565b94505b604051633e710cd560e11b815265ffffffffffff861660048201526000906001600160a01b03831690637ce219aa9060240160c060405180830381865afa15801562001392573d6000803e3d6000fd5b505050506040513d601f19601f82011682018060405250810190620013b8919062002875565b905060405180608001604052808765ffffffffffff16815260200182606001516001600160701b0316815260200182608001516001600160701b031681526020018260a0015163ffffffff16815250836000815181106200141d576200141d62002930565b602090810291909101015260015b8560ff168160ff1610156200152e576020820151604051633e710cd560e11b815265ffffffffffff821660048201526001600160a01b03851690637ce219aa9060240160c060405180830381865afa1580156200148c573d6000803e3d6000fd5b505050506040513d601f19601f82011682018060405250810190620014b2919062002875565b925060405180608001604052808265ffffffffffff16815260200184606001516001600160701b0316815260200184608001516001600160701b031681526020018460a0015163ffffffff16815250858360ff168151811062001519576200151962002930565b6020908102919091010152506001016200142b565b5091925050505b9392505050565b600080838360405160200162001554929190620027fa565b604051602081830303815290604052805190602001209050600060ff60f81b308360405180602001620015879062002263565b601f1982820381018352601f909101166040819052600254620015be918b918b916064916001600160a01b0316906020016200281c565b60408051601f1981840301815290829052620015de929160200162002978565b604051602081830303815290604052805190602001206040516020016200163794939291906001600160f81b031994909416845260609290921b6001600160601b03191660018401526015830152603582015260550190565b60408051808303601f19018152919052805160209091012095945050505050565b6200166262001d6c565b600180546001600160a01b0383166001600160a01b03199091168117909155620016946000546001600160a01b031690565b6001600160a01b03167f38d16b8cac22d99fc7c124b9cd0de2d3fa1faef420bfe791d8c362d765e2270060405160405180910390a350565b606060008265ffffffffffff1667ffffffffffffffff811115620016f457620016f46200284a565b6040519080825280602002602001820160405280156200173157816020015b6200171d62002271565b815260200190600190039081620017135790505b5090508365ffffffffffff1660000362001769576001600160a01b03851660009081526005602052604090205465ffffffffffff1693505b8365ffffffffffff166000036200178257905062001535565b835b65ffffffffffff841662001799828762002991565b65ffffffffffff16108015620017b7575060008165ffffffffffff16115b15620018e757600060046000620017cf898562002026565b65ffffffffffff1916815260208082019290925260409081016000908120825160608101845290546001600160a01b03811680835265ffffffffffff600160a01b830416958301869052600160d01b90910463ffffffff16828501529251633e710cd560e11b81526004810194909452935091637ce219aa9060240160c060405180830381865afa15801562001869573d6000803e3d6000fd5b505050506040513d601f19601f820116820180604052508101906200188f919062002875565b90506200189e83838362002071565b84620018ab858a62002991565b65ffffffffffff1681518110620018c657620018c662002930565b6020026020010181905250505080620018df90620029b3565b905062001784565b50949350505050565b6000808590506000816001600160a01b03166399a3bd236040518163ffffffff1660e01b8152600401602060405180830381865afa15801562001937573d6000803e3d6000fd5b505050506040513d601f19601f820116820180604052508101906200195d91906200264e565b90508065ffffffffffff166000036200197c5760009250505062001b31565b8365ffffffffffff1660000362001991578093505b604051632784e81560e01b815265ffffffffffff851660048201526000908190819081906001600160a01b03871690632784e8159060240160c060405180830381865afa158015620019e7573d6000803e3d6000fd5b505050506040513d601f19601f8201168201806040525081019062001a0d9190620029d8565b50945094505093509350816001600160701b031660001415801562001a3a575065ffffffffffff84811614155b1562001a44578794505b62001a508983620026f4565b6001600160701b031662001a658b83620026f4565b6001600160701b0316111562001a845783965050505050505062001b31565b8265ffffffffffff1660000362001aa45784965050505050505062001b31565b604051632784e81560e01b815265ffffffffffff8416600482015292945084926001600160a01b03871690632784e8159060240160c060405180830381865afa15801562001af6573d6000803e3d6000fd5b505050506040513d601f19601f8201168201806040525081019062001b1c9190620029d8565b5093975091955090935090915062001a449050565b949350505050565b604080516001600160a01b0385811660248301528481166044830152606480830185905283518084039091018152608490920183526020820180516001600160e01b03166323b872dd60e01b179052915160009283929088169162001b9f919062002a67565b6000604051808303816000865af19150503d806000811462001bde576040519150601f19603f3d011682016040523d82523d6000602084013e62001be3565b606091505b509150915081801562001c1157508051158062001c1157508080602001905181019062001c11919062002a75565b62001c6b5760405162461bcd60e51b8152602060048201526024808201527f5472616e7366657248656c7065723a205452414e534645525f46524f4d5f46416044820152631253115160e21b6064820152608401620005cf565b505050505050565b3360009081526005602052604090205465ffffffffffff168062001c978162002a99565b9150506040518060600160405280846001600160a01b031681526020018365ffffffffffff1681526020014263ffffffff168152506004600062001cdc338562002026565b65ffffffffffff199081168252602080830193909352604091820160009081208551815487870151978601516001600160a01b039092166001600160d01b031990911617600160a01b65ffffffffffff988916021763ffffffff60d01b1916600160d01b63ffffffff90921691909102179055338152600590935291208054909116929091169190911790555050565b6000546001600160a01b031633146200094a5760405162461bcd60e51b815260206004820181905260248201527f4f776e61626c653a2063616c6c6572206973206e6f7420746865206f776e65726044820152606401620005cf565b604080516001600160a01b038481166024830152604480830185905283518084039091018152606490920183526020820180516001600160e01b031663095ea7b360e01b179052915160009283929087169162001e26919062002a67565b6000604051808303816000865af19150503d806000811462001e65576040519150601f19603f3d011682016040523d82523d6000602084013e62001e6a565b606091505b509150915081801562001e9857508051158062001e9857508080602001905181019062001e98919062002a75565b62001ee65760405162461bcd60e51b815260206004820152601e60248201527f5472616e7366657248656c7065723a20415050524f56455f4641494c454400006044820152606401620005cf565b5050505050565b604080516001600160a01b038481166024830152604480830185905283518084039091018152606490920183526020820180516001600160e01b031663a9059cbb60e01b179052915160009283929087169162001f4b919062002a67565b6000604051808303816000865af19150503d806000811462001f8a576040519150601f19603f3d011682016040523d82523d6000602084013e62001f8f565b606091505b509150915081801562001fbd57508051158062001fbd57508080602001905181019062001fbd919062002a75565b62001ee65760405162461bcd60e51b815260206004820152601f60248201527f5472616e7366657248656c7065723a205452414e534645525f4641494c4544006044820152606401620005cf565b600180546001600160a01b0319169055620009c78162002213565b6040516001600160601b0319606084901b1660208201526001600160d01b031960d083901b166034820152600090603a01604051602081830303815290604052620015359062002ac1565b6200207b62002271565b6040518061014001604052808565ffffffffffff16815260200184600001516001600160a01b0316815260200184600001516001600160a01b0316630dfe16816040518163ffffffff1660e01b8152600401602060405180830381865afa158015620020eb573d6000803e3d6000fd5b505050506040513d601f19601f8201168201806040525081019062002111919062002621565b6001600160a01b0316815260200184600001516001600160a01b031663d21220a76040518163ffffffff1660e01b8152600401602060405180830381865afa15801562002162573d6000803e3d6000fd5b505050506040513d601f19601f8201168201806040525081019062002188919062002621565b6001600160a01b03168152602001846020015165ffffffffffff168152602001846040015163ffffffff16815260200183606001516001600160701b0316815260200183608001516001600160701b031681526020018360a0015163ffffffff16815260200165ffffffffffff8016846000015165ffffffffffff1614151581525090509392505050565b600080546001600160a01b038381166001600160a01b0319831681178455604051919092169283917f8be0079c531659141344cd1fd0a4f28419497f9722a3daafe3b4186f6b6457e09190a35050565b611fca8062002af983390190565b6040805161014081018252600080825260208201819052918101829052606081018290526080810182905260a0810182905260c0810182905260e08101829052610100810182905261012081019190915290565b6001600160a01b0381168114620009c757600080fd5b6001600160701b0381168114620009c757600080fd5b65ffffffffffff81168114620009c757600080fd5b600080600080608085870312156200231d57600080fd5b84356200232a81620022c5565b935060208501356200233c81620022db565b925060408501356200234e81620022db565b915060608501356200236081620022f1565b939692955090935050565b6000602082840312156200237e57600080fd5b81356200153581620022c5565b600080604083850312156200239f57600080fd5b8235620023ac81620022c5565b91506020830135620023be81620022c5565b809150509250929050565b600080600060608486031215620023df57600080fd5b8335620023ec81620022c5565b92506020840135620023fe81620022db565b915060408401356200241081620022db565b809150509250925092565b60ff81168114620009c757600080fd5b6000806000606084860312156200244157600080fd5b83356200244e81620022c5565b925060208401356200246081620022f1565b9150604084013562002410816200241b565b602080825282518282018190526000919060409081850190868401855b82811015620024e5578151805165ffffffffffff168552868101516001600160701b039081168887015286820151168686015260609081015163ffffffff1690850152608090930192908501906001016200248f565b5091979650505050505050565b6000806000606084860312156200250857600080fd5b83356200251581620022c5565b925060208401356200252781620022f1565b915060408401356200241081620022f1565b602080825282518282018190526000919060409081850190868401855b82811015620024e5578151805165ffffffffffff9081168652878201516001600160a01b039081168988015287830151811688880152606080840151909116908701526080808301519091169086015260a08082015163ffffffff9081169187019190915260c0808301516001600160701b039081169188019190915260e08084015190911690870152610100808301519091169086015261012090810151151590850152610140909301929085019060010162002556565b80516200261c81620022c5565b919050565b6000602082840312156200263457600080fd5b81516200153581620022c5565b80516200261c81620022f1565b6000602082840312156200266157600080fd5b81516200153581620022f1565b60208082526030908201527f5472616465536572766963653a2072656672657368417070726f76653a3a207460408201526f1c9859195050881b9bdd08195e1a5cdd60821b606082015260800190565b600060208284031215620026d157600080fd5b815162001535816200241b565b634e487b7160e01b600052601160045260246000fd5b6001600160701b038181168382160280821691908281146200271a576200271a620026de565b505092915050565b60006001600160701b03808416806200274b57634e487b7160e01b600052601260045260246000fd5b92169190910492915050565b6001600160701b038181168382160190808211156200277a576200277a620026de565b5092915050565b80516200261c81620022db565b600080600060608486031215620027a457600080fd5b8351620027b181620022db565b6020850151909350620027c481620022db565b60408501519092506200241081620022db565b6001600160701b038281168282160390808211156200277a576200277a620026de565b6001600160601b0319606093841b811682529190921b16601482015260280190565b6001600160a01b039485168152928416602084015260ff919091166040830152909116606082015260800190565b634e487b7160e01b600052604160045260246000fd5b805163ffffffff811681146200261c57600080fd5b600060c082840312156200288857600080fd5b60405160c0810181811067ffffffffffffffff82111715620028ba57634e487b7160e01b600052604160045260246000fd5b604052620028c88362002641565b8152620028d86020840162002641565b6020820152620028eb604084016200260f565b6040820152620028fe6060840162002781565b6060820152620029116080840162002781565b60808201526200292460a0840162002860565b60a08201529392505050565b634e487b7160e01b600052603260045260246000fd5b6000815160005b818110156200296957602081850181015186830152016200294d565b50600093019283525090919050565b600062001b316200298a838662002946565b8462002946565b65ffffffffffff8281168282160390808211156200277a576200277a620026de565b600065ffffffffffff821680620029ce57620029ce620026de565b6000190192915050565b60008060008060008060c08789031215620029f257600080fd5b8651620029ff81620022f1565b602088015190965062002a1281620022f1565b604088015190955062002a2581620022c5565b606088015190945062002a3881620022db565b608088015190935062002a4b81620022db565b915062002a5b60a0880162002860565b90509295509295509295565b600062001535828462002946565b60006020828403121562002a8857600080fd5b815180151581146200153557600080fd5b600065ffffffffffff80831681810362002ab75762002ab7620026de565b6001019392505050565b8051602082015165ffffffffffff19808216929190601a83101562002af057808184601a0360031b1b83161693505b50505091905056fe6101006040526000805465ffffffffffff191690553480156200002157600080fd5b5060405162001fca38038062001fca833981016040819052620000449162000085565b6001600160a01b0393841660805291831660a05260ff1660c0521660e052620000e9565b80516001600160a01b03811681146200008057600080fd5b919050565b600080600080608085870312156200009c57600080fd5b620000a78562000068565b9350620000b76020860162000068565b9250604085015160ff81168114620000ce57600080fd5b9150620000de6060860162000068565b905092959194509250565b60805160a05160c05160e051611e54620001766000396000818160be015281816108670152818161089701526108bd015260008181610425015261095b0152600081816103ab01528181610a4201528181610d39015261184801526000818161012b015281816104da01528181610687015281816107ac015281816109a901526109f60152611e546000f3fe608060405234801561001057600080fd5b50600436106100b45760003560e01c806399a3bd231161007157806399a3bd2314610394578063d21220a7146103a6578063d51356f2146103cd578063d9d8f541146103e2578063dbc4ba87146103f5578063ddca3f431461042057600080fd5b8063017e7e58146100b957806306661abd146100fd5780630dfe1681146101265780632784e8151461014d578063692f3a44146102165780637ce219aa14610253575b600080fd5b6100e07f000000000000000000000000000000000000000000000000000000000000000081565b6040516001600160a01b0390911681526020015b60405180910390f35b60005461010f9065ffffffffffff1681565b60405165ffffffffffff90911681526020016100f4565b6100e07f000000000000000000000000000000000000000000000000000000000000000081565b6101c061015b366004611b85565b6001602081905260009182526040909120805491015465ffffffffffff80831692600160301b810490911691600160601b9091046001600160a01b0316906001600160701b0380821691600160701b810490911690600160e01b900463ffffffff1686565b6040805165ffffffffffff97881681529690951660208701526001600160a01b03909316938501939093526001600160701b039081166060850152909116608083015263ffffffff1660a082015260c0016100f4565b610229610224366004611bb7565b610459565b604080516001600160701b03948516815292841660208401529216918101919091526060016100f4565b61031f610261366004611b85565b6040805160c081018252600080825260208201819052918101829052606081018290526080810182905260a08101919091525065ffffffffffff908116600090815260016020818152604092839020835160c08101855281548087168252600160301b810490961692810192909252600160601b9094046001600160a01b03169281019290925291909101546001600160701b038082166060840152600160701b8204166080830152600160e01b900463ffffffff1660a082015290565b6040516100f49190600060c08201905065ffffffffffff8084511683528060208501511660208401525060018060a01b03604084015116604083015260608301516001600160701b038082166060850152806080860151166080850152505063ffffffff60a08401511660a083015292915050565b60025461010f9065ffffffffffff1681565b6100e07f000000000000000000000000000000000000000000000000000000000000000081565b6103e06103db366004611bff565b610a7b565b005b61010f6103f0366004611c36565b610c42565b610408610403366004611b85565b61165a565b6040516001600160701b0390911681526020016100f4565b6104477f000000000000000000000000000000000000000000000000000000000000000081565b60405160ff90911681526020016100f4565b6002546000908190819065ffffffffffff1681036104cd5760405162461bcd60e51b815260206004820152602660248201527f4d6f6e6f54726164653a2074616b654f726465723a3a206f726465727320697360448201526520656d70747960d01b60648201526084015b60405180910390fd5b61050b6001600160a01b037f00000000000000000000000000000000000000000000000000000000000000001633306001600160701b038916611888565b845b60025465ffffffffffff16156107fd5760025465ffffffffffff1660009081526001602081905260409091209081015461055b906001600160701b03600160701b9091048116908816611c8f565b6001820154610577906001600160701b03908116908a16611c8f565b101561058357506107fd565b600181015460009063ffffffff906105ae906001600160701b03811690600160e01b90048316611c8f565b6105b89190611cc2565b60018301549091506000906001600160701b03808216916105e591600160701b9091048116908516611c8f565b6105ef9190611cc2565b600184015461060e9190600160701b90046001600160701b0316611cd6565b9050806001600160701b0316846001600160701b0316106106fd576106338185611cd6565b600184015490945061064f9083906001600160701b0316611cd6565b6106599087611cfd565b9550610664836119b8565b6001830180546001600160e01b03166001600160e01b031917905582546106c9907f00000000000000000000000000000000000000000000000000000000000000006001600160a01b0390811691600160601b9004166001600160701b038416611a4f565b825465ffffffffffff1990811665ffffffffffff90811780865560028054909316600160301b9091049091161790556107f5565b60018301546000906001600160701b03600160701b820481169161072691908116908816611c8f565b6107309190611cc2565b905061073c8188611cfd565b96506107488184611cfd565b60018501549093506001600160701b031661076763ffffffff85611d1d565b6107719190611d48565b61077c906001611d6e565b6001850180546001600160e01b0316600160e01b63ffffffff9384160217905584546107e8916001600160a01b037f0000000000000000000000000000000000000000000000000000000000000000811692600160601b900416906001600160701b03891690611a4f16565b60009450505050506107fd565b50505061050d565b6108078187611cd6565b93506000846001600160701b0316116108625760405162461bcd60e51b815260206004820152601e60248201527f4d6f6e6f54726164653a2074616b654f726465723a3a206e6f206465616c000060448201526064016104c4565b6000807f00000000000000000000000000000000000000000000000000000000000000006001600160a01b03163b116108bb577f000000000000000000000000000000000000000000000000000000000000000061093f565b7f00000000000000000000000000000000000000000000000000000000000000006001600160a01b031663017e7e586040518163ffffffff1660e01b81526004016020604051808303816000875af115801561091b573d6000803e3d6000fd5b505050506040513d601f19601f8201168201806040525081019061093f9190611d8b565b9050336001600160a01b038216146109da5761271061098160ff7f00000000000000000000000000000000000000000000000000000000000000001687611d1d565b61098b9190611d48565b92506001600160701b038316156109da576109da6001600160a01b037f00000000000000000000000000000000000000000000000000000000000000001633836001600160701b038716611888565b6001600160701b03821615610a2657610a266001600160a01b037f000000000000000000000000000000000000000000000000000000000000000016336001600160701b038516611a4f565b6001600160701b03841615610a7257610a726001600160a01b037f000000000000000000000000000000000000000000000000000000000000000016336001600160701b038716611a4f565b50509250925092565b65ffffffffffff821660009081526001602052604090208054600160601b90046001600160a01b03163314610b185760405162461bcd60e51b815260206004820152603c60248201527f4d6f6e6f54726164653a206368616e67654f726465724f776e65723a3a20796f60448201527f7520617265206e6f74206f776e6572206f6620746865206f726465720000000060648201526084016104c4565b805465ffffffffffff1665fffffffffffe1901610b9f576040805162461bcd60e51b81526020600482015260248101919091527f4d6f6e6f54726164653a206368616e67654f726465724f776e65723a3a20746860448201527f65206f7264657220697320616c72656164792072656d6f76656428646f6e652960648201526084016104c4565b6001600160a01b038216610c1b5760405162461bcd60e51b815260206004820152603a60248201527f4d6f6e6f54726164653a206368616e67654f726465724f776e65723a3a206e6560448201527f774f776e65722063616e2774206265206164647265737328302900000000000060648201526084016104c4565b80546001600160a01b03909216600160601b026001600160601b0390921691909117905550565b600080846001600160701b031611610cb75760405162461bcd60e51b815260206004820152603260248201527f4d6f6e6f54726164653a206d616b654f726465723a3a20746f6b656e31496e206044820152710616d6f756e742063616e6e6f7420626520360741b60648201526084016104c4565b6000836001600160701b031611610d2c5760405162461bcd60e51b815260206004820152603360248201527f4d6f6e6f54726164653a206d616b654f726465723a3a20746f6b656e304f7574604482015272020616d6f756e742063616e6e6f74206265203606c1b60648201526084016104c4565b610d6a6001600160a01b037f00000000000000000000000000000000000000000000000000000000000000001633306001600160701b038816611888565b600080548190610d819065ffffffffffff16611da8565b82546101009290920a65ffffffffffff81810219909316918316021790915560025416600003610eaf57506040805160c08101825260008082526020808301828152338486019081526001600160701b03808a16606087019081528982166080880190815260a08801878152875465ffffffffffff908116895260019788905299882098518954965195516001600160a01b0316600160601b026001600160601b03968c16600160301b026001600160601b0319909816918c16919091179690961794909416949094178755519590930180549251915163ffffffff16600160e01b026001600160e01b03928516600160701b026001600160e01b03199094169690941695909517919091171617909155546002805465ffffffffffff191691909216908117909155611653565b8165ffffffffffff166000036110975760025465ffffffffffff16600090815260016020819052604090912090810154610ef5906001600160701b038087169116611c8f565b6001820154610f17906001600160701b0380891691600160701b900416611c8f565b11610f7e5760405162461bcd60e51b815260206004820152603160248201527f4d6f6e6f54726164653a206d616b654f726465723a3a20796f75722070726963604482015270329036bab9ba101f103a37b827b93232b960791b60648201526084016104c4565b60008054825465ffffffffffff1990811665ffffffffffff928316179093556040805160c0810182528381526002805484166020808401918252338486019081526001600160701b03808e16606087019081528d82166080880190815260a088018b81528b548b168c52600195869052988b2097518854965194516001600160a01b0316600160601b026001600160601b03958c16600160301b026001600160601b0319909816918c1691909117969096179390931694909417865592519490910180549151955163ffffffff16600160e01b026001600160e01b03968416600160701b026001600160e01b03199093169590931694909417179390931692909217905591548254909316921691821790559050611653565b65ffffffffffff8216600090815260016020819052604082209081015490916001600160701b0390911690036111275760405162461bcd60e51b815260206004820152602f60248201527f4d6f6e6f54726164653a206d616b654f726465723a3a206265666f72654f726460448201526e195c881a5cc81b9bdd08195e1a5cdd608a1b60648201526084016104c4565b805465ffffffffffff1665fffffffffffe19016111a25760405162461bcd60e51b815260206004820152603360248201527f4d6f6e6f54726164653a206d616b654f726465723a3a206265666f72654f726460448201527265722069732072656d6f76656428646f6e652960681b60648201526084016104c4565b60018101546111bd906001600160701b038087169116611c8f565b60018201546111df906001600160701b0380891691600160701b900416611c8f565b111561124b5760405162461bcd60e51b815260206004820152603560248201527f4d6f6e6f54726164653a206d616b654f726465723a3a20796f75722070726963604482015274329036bab9ba101e1e903132b337b932a7b93232b960591b60648201526084016104c4565b8054600160301b900465ffffffffffff1660000361137357600080548254600160301b65ffffffffffff928316810265ffffffffffff60301b19909216919091179093556040805160c08101825286831681526020808201858152338385019081526001600160701b03808d16606086019081528c82166080870190815260a087018a81528a548a168b52600196879052978a2096518754955194516001600160a01b0316600160601b026001600160601b03958b16909c026001600160601b0319909616908a16179490941792909216989098178455519290910180549151935163ffffffff16600160e01b026001600160e01b03948816600160701b026001600160e01b0319909316939097169290921717919091169390931790925554169050611653565b8054600160301b900465ffffffffffff16600090815260016020819052604082209081015490916001600160701b03909116900361140a5760405162461bcd60e51b815260206004820152602e60248201527f4d6f6e6f54726164653a206d616b654f726465723a3a2061667465724f72646560448201526d1c881a5cc81b9bdd08195e1a5cdd60921b60648201526084016104c4565b805465ffffffffffff1665fffffffffffe190161147e5760405162461bcd60e51b815260206004820152602c60248201527f4d6f6e6f54726164653a206d616b654f726465723a3a2061667465724f72646560448201526b1c881a5cc81c995b5bdd995960a21b60648201526084016104c4565b6001810154611499906001600160701b038088169116611c8f565b60018201546114bb906001600160701b03808a1691600160701b900416611c8f565b116115245760405162461bcd60e51b815260206004820152603360248201527f4d6f6e6f54726164653a206d616b654f726465723a3a20796f75722070726963604482015272329036bab9ba101f1030b33a32b927b93232b960691b60648201526084016104c4565b6040805160c08101825265ffffffffffff80871682528454600160301b9081900482166020808501918252338587019081526001600160701b03808e16606088019081528d821660808901908152600060a08a0181815281548a1682526001968790529a812099518a54975195516001600160a01b0316600160601b026001600160601b03968b168a026001600160601b0319909916918b16919091179790971794909416959095178855519690920180549351975163ffffffff16600160e01b026001600160e01b03988416600160701b026001600160e01b031990951697909316969096179290921795909516949094179092558254855490821690920265ffffffffffff60301b1992909216919091179093558054825465ffffffffffff191690841617909155541690505b9392505050565b65ffffffffffff811660009081526001602052604081208054600160601b90046001600160a01b031633146116f75760405162461bcd60e51b815260206004820152603760248201527f4d6f6e6f54726164653a2063616e63656c4f726465723a3a20796f752061726560448201527f206e6f74206f776e6572206f6620746865206f7264657200000000000000000060648201526084016104c4565b805465ffffffffffff1665fffffffffffe190161177c5760405162461bcd60e51b815260206004820152603b60248201527f4d6f6e6f54726164653a2063616e63656c4f726465723a3a20746865206f726460448201527f657220697320616c72656164792072656d6f76656428646f6e6529000000000060648201526084016104c4565b611785816119b8565b60025465ffffffffffff8085169116036117c157805460028054600160301b90920465ffffffffffff1665ffffffffffff199092169190911790555b805465ffffffffffff191665ffffffffffff178155600181015460009063ffffffff90611801906001600160701b03811690600160e01b90048316611c8f565b61180b9190611cc2565b60018301549091506118279082906001600160701b0316611cd6565b92506001600160701b03831615611881578154611881906001600160a01b037f0000000000000000000000000000000000000000000000000000000000000000811691600160601b9004166001600160701b038616611a4f565b5050919050565b604080516001600160a01b0385811660248301528481166044830152606480830185905283518084039091018152608490920183526020820180516001600160e01b03166323b872dd60e01b17905291516000928392908816916118ec9190611dcd565b6000604051808303816000865af19150503d8060008114611929576040519150601f19603f3d011682016040523d82523d6000602084013e61192e565b606091505b50915091508180156119585750805115806119585750808060200190518101906119589190611dfc565b6119b05760405162461bcd60e51b8152602060048201526024808201527f5472616e7366657248656c7065723a205452414e534645525f46524f4d5f46416044820152631253115160e21b60648201526084016104c4565b505050505050565b805465ffffffffffff1615611a0257805465ffffffffffff8082166000908152600160205260409020805465ffffffffffff60301b1916600160301b938490049092169092021790555b8054600160301b900465ffffffffffff1615611a4c578054600160301b810465ffffffffffff9081166000908152600160205260409020805465ffffffffffff1916919092161790555b50565b604080516001600160a01b038481166024830152604480830185905283518084039091018152606490920183526020820180516001600160e01b031663a9059cbb60e01b1790529151600092839290871691611aab9190611dcd565b6000604051808303816000865af19150503d8060008114611ae8576040519150601f19603f3d011682016040523d82523d6000602084013e611aed565b606091505b5091509150818015611b17575080511580611b17575080806020019051810190611b179190611dfc565b611b635760405162461bcd60e51b815260206004820152601f60248201527f5472616e7366657248656c7065723a205452414e534645525f4641494c45440060448201526064016104c4565b5050505050565b803565ffffffffffff81168114611b8057600080fd5b919050565b600060208284031215611b9757600080fd5b61165382611b6a565b80356001600160701b0381168114611b8057600080fd5b60008060408385031215611bca57600080fd5b611bd383611ba0565b9150611be160208401611ba0565b90509250929050565b6001600160a01b0381168114611a4c57600080fd5b60008060408385031215611c1257600080fd5b611c1b83611b6a565b91506020830135611c2b81611bea565b809150509250929050565b600080600060608486031215611c4b57600080fd5b611c5484611ba0565b9250611c6260208501611ba0565b9150611c7060408501611b6a565b90509250925092565b634e487b7160e01b600052601160045260246000fd5b8082028115828204841417611ca657611ca6611c79565b92915050565b634e487b7160e01b600052601260045260246000fd5b600082611cd157611cd1611cac565b500490565b6001600160701b03828116828216039080821115611cf657611cf6611c79565b5092915050565b6001600160701b03818116838216019080821115611cf657611cf6611c79565b6001600160701b03818116838216028082169190828114611d4057611d40611c79565b505092915050565b60006001600160701b0380841680611d6257611d62611cac565b92169190910492915050565b63ffffffff818116838216019080821115611cf657611cf6611c79565b600060208284031215611d9d57600080fd5b815161165381611bea565b600065ffffffffffff808316818103611dc357611dc3611c79565b6001019392505050565b6000825160005b81811015611dee5760208186018101518583015201611dd4565b506000920191825250919050565b600060208284031215611e0e57600080fd5b8151801515811461165357600080fdfea264697066735822122056e94d15a4ebaa13f832a4a80c13f5fe41ed2ce5a0c579982c051224409b5e1164736f6c63430008180033a2646970667358221220c8185394ba23a89a5879f31eec2c8dcfd2dc23b3e4cd98dffaf2ed445e1c36e264736f6c63430008180033",
    "linkReferences": {},
    "deployedLinkReferences": {}
}